{
  "_format": "hh-sol-artifact-1",
  "contractName": "MyEpicNFT",
  "sourceName": "contracts/MyEpicNFT.sol",
  "abi": [
    {
      "inputs": [],
      "stateMutability": "nonpayable",
      "type": "constructor"
    },
    {
      "anonymous": false,
      "inputs": [
        {
          "indexed": true,
          "internalType": "address",
          "name": "owner",
          "type": "address"
        },
        {
          "indexed": true,
          "internalType": "address",
          "name": "approved",
          "type": "address"
        },
        {
          "indexed": true,
          "internalType": "uint256",
          "name": "tokenId",
          "type": "uint256"
        }
      ],
      "name": "Approval",
      "type": "event"
    },
    {
      "anonymous": false,
      "inputs": [
        {
          "indexed": true,
          "internalType": "address",
          "name": "owner",
          "type": "address"
        },
        {
          "indexed": true,
          "internalType": "address",
          "name": "operator",
          "type": "address"
        },
        {
          "indexed": false,
          "internalType": "bool",
          "name": "approved",
          "type": "bool"
        }
      ],
      "name": "ApprovalForAll",
      "type": "event"
    },
    {
      "anonymous": false,
      "inputs": [
        {
          "indexed": false,
          "internalType": "address",
          "name": "sender",
          "type": "address"
        },
        {
          "indexed": false,
          "internalType": "uint256",
          "name": "tokenId",
          "type": "uint256"
        }
      ],
      "name": "NewEpicNFTMinted",
      "type": "event"
    },
    {
      "anonymous": false,
      "inputs": [
        {
          "indexed": true,
          "internalType": "address",
          "name": "from",
          "type": "address"
        },
        {
          "indexed": true,
          "internalType": "address",
          "name": "to",
          "type": "address"
        },
        {
          "indexed": true,
          "internalType": "uint256",
          "name": "tokenId",
          "type": "uint256"
        }
      ],
      "name": "Transfer",
      "type": "event"
    },
    {
      "inputs": [
        {
          "internalType": "address",
          "name": "to",
          "type": "address"
        },
        {
          "internalType": "uint256",
          "name": "tokenId",
          "type": "uint256"
        }
      ],
      "name": "approve",
      "outputs": [],
      "stateMutability": "nonpayable",
      "type": "function"
    },
    {
      "inputs": [
        {
          "internalType": "address",
          "name": "owner",
          "type": "address"
        }
      ],
      "name": "balanceOf",
      "outputs": [
        {
          "internalType": "uint256",
          "name": "",
          "type": "uint256"
        }
      ],
      "stateMutability": "view",
      "type": "function"
    },
    {
      "inputs": [
        {
          "internalType": "uint256",
          "name": "tokenId",
          "type": "uint256"
        }
      ],
      "name": "getApproved",
      "outputs": [
        {
          "internalType": "address",
          "name": "",
          "type": "address"
        }
      ],
      "stateMutability": "view",
      "type": "function"
    },
    {
      "inputs": [
        {
          "internalType": "address",
          "name": "owner",
          "type": "address"
        },
        {
          "internalType": "address",
          "name": "operator",
          "type": "address"
        }
      ],
      "name": "isApprovedForAll",
      "outputs": [
        {
          "internalType": "bool",
          "name": "",
          "type": "bool"
        }
      ],
      "stateMutability": "view",
      "type": "function"
    },
    {
      "inputs": [],
      "name": "mintNFT",
      "outputs": [],
      "stateMutability": "nonpayable",
      "type": "function"
    },
    {
      "inputs": [],
      "name": "name",
      "outputs": [
        {
          "internalType": "string",
          "name": "",
          "type": "string"
        }
      ],
      "stateMutability": "view",
      "type": "function"
    },
    {
      "inputs": [
        {
          "internalType": "uint256",
          "name": "tokenId",
          "type": "uint256"
        }
      ],
      "name": "ownerOf",
      "outputs": [
        {
          "internalType": "address",
          "name": "",
          "type": "address"
        }
      ],
      "stateMutability": "view",
      "type": "function"
    },
    {
      "inputs": [
        {
          "internalType": "uint256",
          "name": "tokenId",
          "type": "uint256"
        }
      ],
      "name": "pickRandomFirstWord",
      "outputs": [
        {
          "internalType": "string",
          "name": "",
          "type": "string"
        }
      ],
      "stateMutability": "view",
      "type": "function"
    },
    {
      "inputs": [
        {
          "internalType": "uint256",
          "name": "tokenId",
          "type": "uint256"
        }
      ],
      "name": "pickRandomThirdWord",
      "outputs": [
        {
          "internalType": "string",
          "name": "",
          "type": "string"
        }
      ],
      "stateMutability": "view",
      "type": "function"
    },
    {
      "inputs": [
        {
          "internalType": "address",
          "name": "from",
          "type": "address"
        },
        {
          "internalType": "address",
          "name": "to",
          "type": "address"
        },
        {
          "internalType": "uint256",
          "name": "tokenId",
          "type": "uint256"
        }
      ],
      "name": "safeTransferFrom",
      "outputs": [],
      "stateMutability": "nonpayable",
      "type": "function"
    },
    {
      "inputs": [
        {
          "internalType": "address",
          "name": "from",
          "type": "address"
        },
        {
          "internalType": "address",
          "name": "to",
          "type": "address"
        },
        {
          "internalType": "uint256",
          "name": "tokenId",
          "type": "uint256"
        },
        {
          "internalType": "bytes",
          "name": "_data",
          "type": "bytes"
        }
      ],
      "name": "safeTransferFrom",
      "outputs": [],
      "stateMutability": "nonpayable",
      "type": "function"
    },
    {
      "inputs": [
        {
          "internalType": "address",
          "name": "operator",
          "type": "address"
        },
        {
          "internalType": "bool",
          "name": "approved",
          "type": "bool"
        }
      ],
      "name": "setApprovalForAll",
      "outputs": [],
      "stateMutability": "nonpayable",
      "type": "function"
    },
    {
      "inputs": [
        {
          "internalType": "bytes4",
          "name": "interfaceId",
          "type": "bytes4"
        }
      ],
      "name": "supportsInterface",
      "outputs": [
        {
          "internalType": "bool",
          "name": "",
          "type": "bool"
        }
      ],
      "stateMutability": "view",
      "type": "function"
    },
    {
      "inputs": [],
      "name": "symbol",
      "outputs": [
        {
          "internalType": "string",
          "name": "",
          "type": "string"
        }
      ],
      "stateMutability": "view",
      "type": "function"
    },
    {
      "inputs": [
        {
          "internalType": "uint256",
          "name": "tokenId",
          "type": "uint256"
        }
      ],
      "name": "tokenURI",
      "outputs": [
        {
          "internalType": "string",
          "name": "",
          "type": "string"
        }
      ],
      "stateMutability": "view",
      "type": "function"
    },
    {
      "inputs": [
        {
          "internalType": "address",
          "name": "from",
          "type": "address"
        },
        {
          "internalType": "address",
          "name": "to",
          "type": "address"
        },
        {
          "internalType": "uint256",
          "name": "tokenId",
          "type": "uint256"
        }
      ],
      "name": "transferFrom",
      "outputs": [],
      "stateMutability": "nonpayable",
      "type": "function"
    }
  ],
  "bytecode": "0x608060405260405180610160016040528061012c81526020016200436661012c9139600890805190602001906200003892919062000664565b506040518061012001604052806040518060400160405280600981526020017f53686f757279616d20000000000000000000000000000000000000000000000081525081526020016040518060400160405280600981526020017f4177616e74696b6120000000000000000000000000000000000000000000000081525081526020016040518060400160405280600981526020017f536964646172746820000000000000000000000000000000000000000000000081525081526020016040518060400160405280600681526020017f417279616e20000000000000000000000000000000000000000000000000000081525081526020016040518060400160405280600681526020017f44696e6b6920000000000000000000000000000000000000000000000000000081525081526020016040518060400160405280600781526020017f44696b736861200000000000000000000000000000000000000000000000000081525081526020016040518060400160405280600981526020017f507274617975736820000000000000000000000000000000000000000000000081525081526020016040518060400160405280600781526020017f566172736861200000000000000000000000000000000000000000000000000081525081526020016040518060400160405280600981526020017f4872697368697368200000000000000000000000000000000000000000000000815250815250600990600962000268929190620006f5565b5060405180602001604052806040518060400160405280600581526020017f4973204120000000000000000000000000000000000000000000000000000000815250815250600a906001620002bf9291906200075c565b506040518061010001604052806040518060400160405280600a81526020017f4368696d70616e7a65650000000000000000000000000000000000000000000081525081526020016040518060400160405280600781526020017f476f72696c6c610000000000000000000000000000000000000000000000000081525081526020016040518060400160405280600781526020017f4c616e676f6f720000000000000000000000000000000000000000000000000081525081526020016040518060400160405280600981526020017f4f72616e677574616e000000000000000000000000000000000000000000000081525081526020016040518060400160405280600781526020017f4d6163617175650000000000000000000000000000000000000000000000000081525081526020016040518060400160405280600981526020017f436f636b726f616368000000000000000000000000000000000000000000000081525081526020016040518060400160405280600b81526020017f4b61616c61204b6565646100000000000000000000000000000000000000000081525081526020016040518060400160405280600781526020017f42696c6175746100000000000000000000000000000000000000000000000000815250815250600b906008620004b4929190620007c3565b50348015620004c257600080fd5b506040518060400160405280600b81526020017f53686f757279616d4e46540000000000000000000000000000000000000000008152506040518060400160405280600381526020017f53484f000000000000000000000000000000000000000000000000000000000081525081600090805190602001906200054792919062000664565b5080600190805190602001906200056092919062000664565b505050620005926040518060600160405280602981526020016200433d602991396200059860201b62000fdf1760201c565b620009e4565b6200063881604051602401620005af9190620008f8565b6040516020818303038152906040527f41304fac000000000000000000000000000000000000000000000000000000007bffffffffffffffffffffffffffffffffffffffffffffffffffffffff19166020820180517bffffffffffffffffffffffffffffffffffffffffffffffffffffffff83818316178352505050506200063b60201b60201c565b50565b60008151905060006a636f6e736f6c652e6c6f679050602083016000808483855afa5050505050565b82805462000672906200096e565b90600052602060002090601f016020900481019282620006965760008555620006e2565b82601f10620006b157805160ff1916838001178555620006e2565b82800160010185558215620006e2579182015b82811115620006e1578251825591602001919060010190620006c4565b5b509050620006f191906200082a565b5090565b82805482825590600052602060002090810192821562000749579160200282015b82811115620007485782518290805190602001906200073792919062000664565b509160200191906001019062000716565b5b50905062000758919062000849565b5090565b828054828255906000526020600020908101928215620007b0579160200282015b82811115620007af5782518290805190602001906200079e92919062000664565b50916020019190600101906200077d565b5b509050620007bf919062000849565b5090565b82805482825590600052602060002090810192821562000817579160200282015b82811115620008165782518290805190602001906200080592919062000664565b5091602001919060010190620007e4565b5b50905062000826919062000849565b5090565b5b80821115620008455760008160009055506001016200082b565b5090565b5b808211156200086d576000818162000863919062000871565b506001016200084a565b5090565b5080546200087f906200096e565b6000825580601f10620008935750620008b4565b601f016020900490600052602060002090810190620008b391906200082a565b5b50565b6000620008c4826200091c565b620008d0818562000927565b9350620008e281856020860162000938565b620008ed81620009d3565b840191505092915050565b60006020820190508181036000830152620009148184620008b7565b905092915050565b600081519050919050565b600082825260208201905092915050565b60005b83811015620009585780820151818401526020810190506200093b565b8381111562000968576000848401525b50505050565b600060028204905060018216806200098757607f821691505b602082108114156200099e576200099d620009a4565b5b50919050565b7f4e487b7100000000000000000000000000000000000000000000000000000000600052602260045260246000fd5b6000601f19601f8301169050919050565b61394980620009f46000396000f3fe608060405234801561001057600080fd5b50600436106101005760003560e01c80636352211e11610097578063b88d4fde11610066578063b88d4fde146102ab578063c575757a146102c7578063c87b56dd146102f7578063e985e9c51461032757610100565b80636352211e1461021157806370a082311461024157806395d89b4114610271578063a22cb4651461028f57610100565b806314f710fe116100d357806314f710fe1461019f57806323b872dd146101a95780632de38d68146101c557806342842e0e146101f557610100565b806301ffc9a71461010557806306fdde0314610135578063081812fc14610153578063095ea7b314610183575b600080fd5b61011f600480360381019061011a919061240b565b610357565b60405161012c9190612af3565b60405180910390f35b61013d610439565b60405161014a9190612b0e565b60405180910390f35b61016d6004803603810190610168919061245d565b6104cb565b60405161017a9190612a63565b60405180910390f35b61019d600480360381019061019891906123cf565b610550565b005b6101a7610668565b005b6101c360048036038101906101be91906122c9565b6108c9565b005b6101df60048036038101906101da919061245d565b610929565b6040516101ec9190612b0e565b60405180910390f35b61020f600480360381019061020a91906122c9565b610a47565b005b61022b6004803603810190610226919061245d565b610a67565b6040516102389190612a63565b60405180910390f35b61025b60048036038101906102569190612264565b610b19565b6040516102689190612d8e565b60405180910390f35b610279610bd1565b6040516102869190612b0e565b60405180910390f35b6102a960048036038101906102a49190612393565b610c63565b005b6102c560048036038101906102c09190612318565b610c79565b005b6102e160048036038101906102dc919061245d565b610cdb565b6040516102ee9190612b0e565b60405180910390f35b610311600480360381019061030c919061245d565b610df9565b60405161031e9190612b0e565b60405180910390f35b610341600480360381019061033c919061228d565b610f4b565b60405161034e9190612af3565b60405180910390f35b60007f80ac58cd000000000000000000000000000000000000000000000000000000007bffffffffffffffffffffffffffffffffffffffffffffffffffffffff1916827bffffffffffffffffffffffffffffffffffffffffffffffffffffffff1916148061042257507f5b5e139f000000000000000000000000000000000000000000000000000000007bffffffffffffffffffffffffffffffffffffffffffffffffffffffff1916827bffffffffffffffffffffffffffffffffffffffffffffffffffffffff1916145b80610432575061043182611078565b5b9050919050565b60606000805461044890613022565b80601f016020809104026020016040519081016040528092919081815260200182805461047490613022565b80156104c15780601f10610496576101008083540402835291602001916104c1565b820191906000526020600020905b8154815290600101906020018083116104a457829003601f168201915b5050505050905090565b60006104d6826110e2565b610515576040517f08c379a000000000000000000000000000000000000000000000000000000000815260040161050c90612cee565b60405180910390fd5b6004600083815260200190815260200160002060009054906101000a900473ffffffffffffffffffffffffffffffffffffffff169050919050565b600061055b82610a67565b90508073ffffffffffffffffffffffffffffffffffffffff168373ffffffffffffffffffffffffffffffffffffffff1614156105cc576040517f08c379a00000000000000000000000000000000000000000000000000000000081526004016105c390612d2e565b60405180910390fd5b8073ffffffffffffffffffffffffffffffffffffffff166105eb61114e565b73ffffffffffffffffffffffffffffffffffffffff16148061061a57506106198161061461114e565b610f4b565b5b610659576040517f08c379a000000000000000000000000000000000000000000000000000000000815260040161065090612c2e565b60405180910390fd5b6106638383611156565b505050565b6000610674600761120f565b905060328111156106ba576040517f08c379a00000000000000000000000000000000000000000000000000000000081526004016106b190612d4e565b60405180910390fd5b60006106c582610929565b905060006106d283610cdb565b9050600082600a600081548110610712577f4e487b7100000000000000000000000000000000000000000000000000000000600052603260045260246000fd5b906000526020600020018360405160200161072f93929190612958565b60405160208183030381529060405290506000600882604051602001610756929190612989565b6040516020818303038152906040529050600061079b836107768461121d565b6040516020016107879291906129da565b60405160208183030381529060405261121d565b90506000816040516020016107b09190612a41565b60405160208183030381529060405290506107ff6040518060400160405280601581526020017f0a2d2d2d2d2d2d2d2d2d2d2d2d2d2d2d2d2d2d2d2d0000000000000000000000815250610fdf565b61080881610fdf565b6108466040518060400160405280601581526020017f2d2d2d2d2d2d2d2d2d2d2d2d2d2d2d2d2d2d2d2d0a0000000000000000000000815250610fdf565b61085033886113db565b61085a87826113f9565b61087d6040518060600160405280602781526020016138ed60279139883361146d565b610887600761150c565b7febb98688741ffa4c7589bf325de30cf7becb63de567842e1ccdb6cb949fdc82c33886040516108b8929190612aca565b60405180910390a150505050505050565b6108da6108d461114e565b82611522565b610919576040517f08c379a000000000000000000000000000000000000000000000000000000000815260040161091090612d6e565b60405180910390fd5b610924838383611600565b505050565b6060600061095d61093984611867565b6040516020016109499190612a1f565b604051602081830303815290604052611a14565b90506009805490508161097091906130ce565b9050600981815481106109ac577f4e487b7100000000000000000000000000000000000000000000000000000000600052603260045260246000fd5b9060005260206000200180546109c190613022565b80601f01602080910402602001604051908101604052809291908181526020018280546109ed90613022565b8015610a3a5780601f10610a0f57610100808354040283529160200191610a3a565b820191906000526020600020905b815481529060010190602001808311610a1d57829003601f168201915b5050505050915050919050565b610a6283838360405180602001604052806000815250610c79565b505050565b6000806002600084815260200190815260200160002060009054906101000a900473ffffffffffffffffffffffffffffffffffffffff169050600073ffffffffffffffffffffffffffffffffffffffff168173ffffffffffffffffffffffffffffffffffffffff161415610b10576040517f08c379a0000000000000000000000000000000000000000000000000000000008152600401610b0790612c6e565b60405180910390fd5b80915050919050565b60008073ffffffffffffffffffffffffffffffffffffffff168273ffffffffffffffffffffffffffffffffffffffff161415610b8a576040517f08c379a0000000000000000000000000000000000000000000000000000000008152600401610b8190612c4e565b60405180910390fd5b600360008373ffffffffffffffffffffffffffffffffffffffff1673ffffffffffffffffffffffffffffffffffffffff168152602001908152602001600020549050919050565b606060018054610be090613022565b80601f0160208091040260200160405190810160405280929190818152602001828054610c0c90613022565b8015610c595780601f10610c2e57610100808354040283529160200191610c59565b820191906000526020600020905b815481529060010190602001808311610c3c57829003601f168201915b5050505050905090565b610c75610c6e61114e565b8383611a47565b5050565b610c8a610c8461114e565b83611522565b610cc9576040517f08c379a0000000000000000000000000000000000000000000000000000000008152600401610cc090612d6e565b60405180910390fd5b610cd584848484611bb4565b50505050565b60606000610d0f610ceb84611867565b604051602001610cfb91906129b8565b604051602081830303815290604052611a14565b9050600b8054905081610d2291906130ce565b9050600b8181548110610d5e577f4e487b7100000000000000000000000000000000000000000000000000000000600052603260045260246000fd5b906000526020600020018054610d7390613022565b80601f0160208091040260200160405190810160405280929190818152602001828054610d9f90613022565b8015610dec5780601f10610dc157610100808354040283529160200191610dec565b820191906000526020600020905b815481529060010190602001808311610dcf57829003601f168201915b5050505050915050919050565b6060610e04826110e2565b610e43576040517f08c379a0000000000000000000000000000000000000000000000000000000008152600401610e3a90612cce565b60405180910390fd5b6000600660008481526020019081526020016000208054610e6390613022565b80601f0160208091040260200160405190810160405280929190818152602001828054610e8f90613022565b8015610edc5780601f10610eb157610100808354040283529160200191610edc565b820191906000526020600020905b815481529060010190602001808311610ebf57829003601f168201915b505050505090506000610eed611c10565b9050600081511415610f03578192505050610f46565b600082511115610f38578082604051602001610f20929190612934565b60405160208183030381529060405292505050610f46565b610f4184611c27565b925050505b919050565b6000600560008473ffffffffffffffffffffffffffffffffffffffff1673ffffffffffffffffffffffffffffffffffffffff16815260200190815260200160002060008373ffffffffffffffffffffffffffffffffffffffff1673ffffffffffffffffffffffffffffffffffffffff16815260200190815260200160002060009054906101000a900460ff16905092915050565b61107581604051602401610ff39190612b0e565b6040516020818303038152906040527f41304fac000000000000000000000000000000000000000000000000000000007bffffffffffffffffffffffffffffffffffffffffffffffffffffffff19166020820180517bffffffffffffffffffffffffffffffffffffffffffffffffffffffff8381831617835250505050611cce565b50565b60007f01ffc9a7000000000000000000000000000000000000000000000000000000007bffffffffffffffffffffffffffffffffffffffffffffffffffffffff1916827bffffffffffffffffffffffffffffffffffffffffffffffffffffffff1916149050919050565b60008073ffffffffffffffffffffffffffffffffffffffff166002600084815260200190815260200160002060009054906101000a900473ffffffffffffffffffffffffffffffffffffffff1673ffffffffffffffffffffffffffffffffffffffff1614159050919050565b600033905090565b816004600083815260200190815260200160002060006101000a81548173ffffffffffffffffffffffffffffffffffffffff021916908373ffffffffffffffffffffffffffffffffffffffff160217905550808273ffffffffffffffffffffffffffffffffffffffff166111c983610a67565b73ffffffffffffffffffffffffffffffffffffffff167f8c5be1e5ebec7d5bd14f71427d1e84f3dd0314c0f7b2291e5b200ac8c7c3b92560405160405180910390a45050565b600081600001549050919050565b6060600082519050600081141561124657604051806020016040528060008152509150506113d6565b600060036002836112579190612e57565b6112619190612ead565b600461126d9190612ede565b9050600060208261127e9190612e57565b67ffffffffffffffff8111156112bd577f4e487b7100000000000000000000000000000000000000000000000000000000600052604160045260246000fd5b6040519080825280601f01601f1916602001820160405280156112ef5781602001600182028036833780820191505090505b50905060006040518060600160405280604081526020016138ad604091399050600181016020830160005b868110156113935760038101905062ffffff818a015116603f8160121c168401518060081b905060ff603f83600c1c1686015116810190508060081b905060ff603f8360061c1686015116810190508060081b905060ff603f831686015116810190508060e01b9050808452600484019350505061131a565b5060038606600181146113ad57600281146113bd576113c8565b613d3d60f01b60028303526113c8565b603d60f81b60018303525b508484525050819450505050505b919050565b6113f5828260405180602001604052806000815250611cf7565b5050565b611402826110e2565b611441576040517f08c379a000000000000000000000000000000000000000000000000000000000815260040161143890612c8e565b60405180910390fd5b806006600084815260200190815260200160002090805190602001906114689291906120f0565b505050565b61150783838360405160240161148593929190612b30565b6040516020818303038152906040527fe3849f79000000000000000000000000000000000000000000000000000000007bffffffffffffffffffffffffffffffffffffffffffffffffffffffff19166020820180517bffffffffffffffffffffffffffffffffffffffffffffffffffffffff8381831617835250505050611cce565b505050565b6001816000016000828254019250508190555050565b600061152d826110e2565b61156c576040517f08c379a000000000000000000000000000000000000000000000000000000000815260040161156390612c0e565b60405180910390fd5b600061157783610a67565b90508073ffffffffffffffffffffffffffffffffffffffff168473ffffffffffffffffffffffffffffffffffffffff1614806115e657508373ffffffffffffffffffffffffffffffffffffffff166115ce846104cb565b73ffffffffffffffffffffffffffffffffffffffff16145b806115f757506115f68185610f4b565b5b91505092915050565b8273ffffffffffffffffffffffffffffffffffffffff1661162082610a67565b73ffffffffffffffffffffffffffffffffffffffff1614611676576040517f08c379a000000000000000000000000000000000000000000000000000000000815260040161166d90612b8e565b60405180910390fd5b600073ffffffffffffffffffffffffffffffffffffffff168273ffffffffffffffffffffffffffffffffffffffff1614156116e6576040517f08c379a00000000000000000000000000000000000000000000000000000000081526004016116dd90612bce565b60405180910390fd5b6116f1838383611d52565b6116fc600082611156565b6001600360008573ffffffffffffffffffffffffffffffffffffffff1673ffffffffffffffffffffffffffffffffffffffff168152602001908152602001600020600082825461174c9190612f38565b925050819055506001600360008473ffffffffffffffffffffffffffffffffffffffff1673ffffffffffffffffffffffffffffffffffffffff16815260200190815260200160002060008282546117a39190612e57565b92505081905550816002600083815260200190815260200160002060006101000a81548173ffffffffffffffffffffffffffffffffffffffff021916908373ffffffffffffffffffffffffffffffffffffffff160217905550808273ffffffffffffffffffffffffffffffffffffffff168473ffffffffffffffffffffffffffffffffffffffff167fddf252ad1be2c89b69c2b068fc378daa952ba7f163c4a11628f55a4df523b3ef60405160405180910390a4611862838383611d57565b505050565b606060008214156118af576040518060400160405280600181526020017f30000000000000000000000000000000000000000000000000000000000000008152509050611a0f565b600082905060005b600082146118e15780806118ca90613085565b915050600a826118da9190612ead565b91506118b7565b60008167ffffffffffffffff811115611923577f4e487b7100000000000000000000000000000000000000000000000000000000600052604160045260246000fd5b6040519080825280601f01601f1916602001820160405280156119555781602001600182028036833780820191505090505b5090505b60008514611a085760018261196e9190612f38565b9150600a8561197d91906130ce565b60306119899190612e57565b60f81b8183815181106119c5577f4e487b7100000000000000000000000000000000000000000000000000000000600052603260045260246000fd5b60200101907effffffffffffffffffffffffffffffffffffffffffffffffffffffffffffff1916908160001a905350600a85611a019190612ead565b9450611959565b8093505050505b919050565b600081604051602001611a27919061291d565b6040516020818303038152906040528051906020012060001c9050919050565b8173ffffffffffffffffffffffffffffffffffffffff168373ffffffffffffffffffffffffffffffffffffffff161415611ab6576040517f08c379a0000000000000000000000000000000000000000000000000000000008152600401611aad90612bee565b60405180910390fd5b80600560008573ffffffffffffffffffffffffffffffffffffffff1673ffffffffffffffffffffffffffffffffffffffff16815260200190815260200160002060008473ffffffffffffffffffffffffffffffffffffffff1673ffffffffffffffffffffffffffffffffffffffff16815260200190815260200160002060006101000a81548160ff0219169083151502179055508173ffffffffffffffffffffffffffffffffffffffff168373ffffffffffffffffffffffffffffffffffffffff167f17307eab39ab6107e8899845ad3d59bd9653f200f220920489ca2b5937696c3183604051611ba79190612af3565b60405180910390a3505050565b611bbf848484611600565b611bcb84848484611d5c565b611c0a576040517f08c379a0000000000000000000000000000000000000000000000000000000008152600401611c0190612b6e565b60405180910390fd5b50505050565b606060405180602001604052806000815250905090565b6060611c32826110e2565b611c71576040517f08c379a0000000000000000000000000000000000000000000000000000000008152600401611c6890612d0e565b60405180910390fd5b6000611c7b611c10565b90506000815111611c9b5760405180602001604052806000815250611cc6565b80611ca584611867565b604051602001611cb6929190612934565b6040516020818303038152906040525b915050919050565b60008151905060006a636f6e736f6c652e6c6f679050602083016000808483855afa5050505050565b611d018383611ef3565b611d0e6000848484611d5c565b611d4d576040517f08c379a0000000000000000000000000000000000000000000000000000000008152600401611d4490612b6e565b60405180910390fd5b505050565b505050565b505050565b6000611d7d8473ffffffffffffffffffffffffffffffffffffffff166120cd565b15611ee6578373ffffffffffffffffffffffffffffffffffffffff1663150b7a02611da661114e565b8786866040518563ffffffff1660e01b8152600401611dc89493929190612a7e565b602060405180830381600087803b158015611de257600080fd5b505af1925050508015611e1357506040513d601f19601f82011682018060405250810190611e109190612434565b60015b611e96573d8060008114611e43576040519150601f19603f3d011682016040523d82523d6000602084013e611e48565b606091505b50600081511415611e8e576040517f08c379a0000000000000000000000000000000000000000000000000000000008152600401611e8590612b6e565b60405180910390fd5b805181602001fd5b63150b7a0260e01b7bffffffffffffffffffffffffffffffffffffffffffffffffffffffff1916817bffffffffffffffffffffffffffffffffffffffffffffffffffffffff191614915050611eeb565b600190505b949350505050565b600073ffffffffffffffffffffffffffffffffffffffff168273ffffffffffffffffffffffffffffffffffffffff161415611f63576040517f08c379a0000000000000000000000000000000000000000000000000000000008152600401611f5a90612cae565b60405180910390fd5b611f6c816110e2565b15611fac576040517f08c379a0000000000000000000000000000000000000000000000000000000008152600401611fa390612bae565b60405180910390fd5b611fb860008383611d52565b6001600360008473ffffffffffffffffffffffffffffffffffffffff1673ffffffffffffffffffffffffffffffffffffffff16815260200190815260200160002060008282546120089190612e57565b92505081905550816002600083815260200190815260200160002060006101000a81548173ffffffffffffffffffffffffffffffffffffffff021916908373ffffffffffffffffffffffffffffffffffffffff160217905550808273ffffffffffffffffffffffffffffffffffffffff16600073ffffffffffffffffffffffffffffffffffffffff167fddf252ad1be2c89b69c2b068fc378daa952ba7f163c4a11628f55a4df523b3ef60405160405180910390a46120c960008383611d57565b5050565b6000808273ffffffffffffffffffffffffffffffffffffffff163b119050919050565b8280546120fc90613022565b90600052602060002090601f01602090048101928261211e5760008555612165565b82601f1061213757805160ff1916838001178555612165565b82800160010185558215612165579182015b82811115612164578251825591602001919060010190612149565b5b5090506121729190612176565b5090565b5b8082111561218f576000816000905550600101612177565b5090565b60006121a66121a184612dce565b612da9565b9050828152602081018484840111156121be57600080fd5b6121c9848285612fe0565b509392505050565b6000813590506121e081613850565b92915050565b6000813590506121f581613867565b92915050565b60008135905061220a8161387e565b92915050565b60008151905061221f8161387e565b92915050565b600082601f83011261223657600080fd5b8135612246848260208601612193565b91505092915050565b60008135905061225e81613895565b92915050565b60006020828403121561227657600080fd5b6000612284848285016121d1565b91505092915050565b600080604083850312156122a057600080fd5b60006122ae858286016121d1565b92505060206122bf858286016121d1565b9150509250929050565b6000806000606084860312156122de57600080fd5b60006122ec868287016121d1565b93505060206122fd868287016121d1565b925050604061230e8682870161224f565b9150509250925092565b6000806000806080858703121561232e57600080fd5b600061233c878288016121d1565b945050602061234d878288016121d1565b935050604061235e8782880161224f565b925050606085013567ffffffffffffffff81111561237b57600080fd5b61238787828801612225565b91505092959194509250565b600080604083850312156123a657600080fd5b60006123b4858286016121d1565b92505060206123c5858286016121e6565b9150509250929050565b600080604083850312156123e257600080fd5b60006123f0858286016121d1565b92505060206124018582860161224f565b9150509250929050565b60006020828403121561241d57600080fd5b600061242b848285016121fb565b91505092915050565b60006020828403121561244657600080fd5b600061245484828501612210565b91505092915050565b60006020828403121561246f57600080fd5b600061247d8482850161224f565b91505092915050565b61248f81612f6c565b82525050565b61249e81612f7e565b82525050565b60006124af82612e14565b6124b98185612e2a565b93506124c9818560208601612fef565b6124d2816131bb565b840191505092915050565b60006124e882612e1f565b6124f28185612e3b565b9350612502818560208601612fef565b61250b816131bb565b840191505092915050565b600061252182612e1f565b61252b8185612e4c565b935061253b818560208601612fef565b80840191505092915050565b6000815461255481613022565b61255e8186612e4c565b94506001821660008114612579576001811461258a576125bd565b60ff198316865281860193506125bd565b61259385612dff565b60005b838110156125b557815481890152600182019150602081019050612596565b838801955050505b50505092915050565b60006125d3603283612e3b565b91506125de826131cc565b604082019050919050565b60006125f6600a83612e4c565b91506126018261321b565b600a82019050919050565b6000612619602583612e3b565b915061262482613244565b604082019050919050565b600061263c601c83612e3b565b915061264782613293565b602082019050919050565b600061265f602483612e3b565b915061266a826132bc565b604082019050919050565b6000612682601983612e3b565b915061268d8261330b565b602082019050919050565b60006126a5606383612e4c565b91506126b082613334565b606382019050919050565b60006126c8602c83612e3b565b91506126d3826133cf565b604082019050919050565b60006126eb600d83612e4c565b91506126f68261341e565b600d82019050919050565b600061270e603883612e3b565b915061271982613447565b604082019050919050565b6000612731602a83612e3b565b915061273c82613496565b604082019050919050565b6000612754602983612e3b565b915061275f826134e5565b604082019050919050565b6000612777602e83612e3b565b915061278282613534565b604082019050919050565b600061279a600283612e4c565b91506127a582613583565b600282019050919050565b60006127bd602083612e3b565b91506127c8826135ac565b602082019050919050565b60006127e0603183612e3b565b91506127eb826135d5565b604082019050919050565b6000612803602c83612e3b565b915061280e82613624565b604082019050919050565b6000612826602f83612e3b565b915061283182613673565b604082019050919050565b6000612849600a83612e4c565b9150612854826136c2565b600a82019050919050565b600061286c602183612e3b565b9150612877826136eb565b604082019050919050565b600061288f600a83612e4c565b915061289a8261373a565b600a82019050919050565b60006128b2601d83612e4c565b91506128bd82613763565b601d82019050919050565b60006128d5604483612e3b565b91506128e08261378c565b606082019050919050565b60006128f8603183612e3b565b915061290382613801565b604082019050919050565b61291781612fd6565b82525050565b60006129298284612516565b915081905092915050565b60006129408285612516565b915061294c8284612516565b91508190509392505050565b60006129648286612516565b91506129708285612547565b915061297c8284612516565b9150819050949350505050565b60006129958285612547565b91506129a18284612516565b91506129ac826126de565b91508190509392505050565b60006129c3826125e9565b91506129cf8284612516565b915081905092915050565b60006129e58261283c565b91506129f18285612516565b91506129fc82612698565b9150612a088284612516565b9150612a138261278d565b91508190509392505050565b6000612a2a82612882565b9150612a368284612516565b915081905092915050565b6000612a4c826128a5565b9150612a588284612516565b915081905092915050565b6000602082019050612a786000830184612486565b92915050565b6000608082019050612a936000830187612486565b612aa06020830186612486565b612aad604083018561290e565b8181036060830152612abf81846124a4565b905095945050505050565b6000604082019050612adf6000830185612486565b612aec602083018461290e565b9392505050565b6000602082019050612b086000830184612495565b92915050565b60006020820190508181036000830152612b2881846124dd565b905092915050565b60006060820190508181036000830152612b4a81866124dd565b9050612b59602083018561290e565b612b666040830184612486565b949350505050565b60006020820190508181036000830152612b87816125c6565b9050919050565b60006020820190508181036000830152612ba78161260c565b9050919050565b60006020820190508181036000830152612bc78161262f565b9050919050565b60006020820190508181036000830152612be781612652565b9050919050565b60006020820190508181036000830152612c0781612675565b9050919050565b60006020820190508181036000830152612c27816126bb565b9050919050565b60006020820190508181036000830152612c4781612701565b9050919050565b60006020820190508181036000830152612c6781612724565b9050919050565b60006020820190508181036000830152612c8781612747565b9050919050565b60006020820190508181036000830152612ca78161276a565b9050919050565b60006020820190508181036000830152612cc7816127b0565b9050919050565b60006020820190508181036000830152612ce7816127d3565b9050919050565b60006020820190508181036000830152612d07816127f6565b9050919050565b60006020820190508181036000830152612d2781612819565b9050919050565b60006020820190508181036000830152612d478161285f565b9050919050565b60006020820190508181036000830152612d67816128c8565b9050919050565b60006020820190508181036000830152612d87816128eb565b9050919050565b6000602082019050612da3600083018461290e565b92915050565b6000612db3612dc4565b9050612dbf8282613054565b919050565b6000604051905090565b600067ffffffffffffffff821115612de957612de861318c565b5b612df2826131bb565b9050602081019050919050565b60008190508160005260206000209050919050565b600081519050919050565b600081519050919050565b600082825260208201905092915050565b600082825260208201905092915050565b600081905092915050565b6000612e6282612fd6565b9150612e6d83612fd6565b9250827fffffffffffffffffffffffffffffffffffffffffffffffffffffffffffffffff03821115612ea257612ea16130ff565b5b828201905092915050565b6000612eb882612fd6565b9150612ec383612fd6565b925082612ed357612ed261312e565b5b828204905092915050565b6000612ee982612fd6565b9150612ef483612fd6565b9250817fffffffffffffffffffffffffffffffffffffffffffffffffffffffffffffffff0483118215151615612f2d57612f2c6130ff565b5b828202905092915050565b6000612f4382612fd6565b9150612f4e83612fd6565b925082821015612f6157612f606130ff565b5b828203905092915050565b6000612f7782612fb6565b9050919050565b60008115159050919050565b60007fffffffff0000000000000000000000000000000000000000000000000000000082169050919050565b600073ffffffffffffffffffffffffffffffffffffffff82169050919050565b6000819050919050565b82818337600083830152505050565b60005b8381101561300d578082015181840152602081019050612ff2565b8381111561301c576000848401525b50505050565b6000600282049050600182168061303a57607f821691505b6020821081141561304e5761304d61315d565b5b50919050565b61305d826131bb565b810181811067ffffffffffffffff8211171561307c5761307b61318c565b5b80604052505050565b600061309082612fd6565b91507fffffffffffffffffffffffffffffffffffffffffffffffffffffffffffffffff8214156130c3576130c26130ff565b5b600182019050919050565b60006130d982612fd6565b91506130e483612fd6565b9250826130f4576130f361312e565b5b828206905092915050565b7f4e487b7100000000000000000000000000000000000000000000000000000000600052601160045260246000fd5b7f4e487b7100000000000000000000000000000000000000000000000000000000600052601260045260246000fd5b7f4e487b7100000000000000000000000000000000000000000000000000000000600052602260045260246000fd5b7f4e487b7100000000000000000000000000000000000000000000000000000000600052604160045260246000fd5b6000601f19601f8301169050919050565b7f4552433732313a207472616e7366657220746f206e6f6e20455243373231526560008201527f63656976657220696d706c656d656e7465720000000000000000000000000000602082015250565b7f54686972645f574f524400000000000000000000000000000000000000000000600082015250565b7f4552433732313a207472616e736665722066726f6d20696e636f72726563742060008201527f6f776e6572000000000000000000000000000000000000000000000000000000602082015250565b7f4552433732313a20746f6b656e20616c7265616479206d696e74656400000000600082015250565b7f4552433732313a207472616e7366657220746f20746865207a65726f2061646460008201527f7265737300000000000000000000000000000000000000000000000000000000602082015250565b7f4552433732313a20617070726f766520746f2063616c6c657200000000000000600082015250565b7f222c20226465736372697074696f6e223a20224120686967686c79206163636c60008201527f61696d656420636f6c6c656374696f6e206f6620737175617265732e222c202260208201527f696d616765223a2022646174613a696d6167652f7376672b786d6c3b6261736560408201527f36342c0000000000000000000000000000000000000000000000000000000000606082015250565b7f4552433732313a206f70657261746f7220717565727920666f72206e6f6e657860008201527f697374656e7420746f6b656e0000000000000000000000000000000000000000602082015250565b7f3c2f746578743e3c2f7376673e00000000000000000000000000000000000000600082015250565b7f4552433732313a20617070726f76652063616c6c6572206973206e6f74206f7760008201527f6e6572206e6f7220617070726f76656420666f7220616c6c0000000000000000602082015250565b7f4552433732313a2062616c616e636520717565727920666f7220746865207a6560008201527f726f206164647265737300000000000000000000000000000000000000000000602082015250565b7f4552433732313a206f776e657220717565727920666f72206e6f6e657869737460008201527f656e7420746f6b656e0000000000000000000000000000000000000000000000602082015250565b7f45524337323155524953746f726167653a2055524920736574206f66206e6f6e60008201527f6578697374656e7420746f6b656e000000000000000000000000000000000000602082015250565b7f227d000000000000000000000000000000000000000000000000000000000000600082015250565b7f4552433732313a206d696e7420746f20746865207a65726f2061646472657373600082015250565b7f45524337323155524953746f726167653a2055524920717565727920666f722060008201527f6e6f6e6578697374656e7420746f6b656e000000000000000000000000000000602082015250565b7f4552433732313a20617070726f76656420717565727920666f72206e6f6e657860008201527f697374656e7420746f6b656e0000000000000000000000000000000000000000602082015250565b7f4552433732314d657461646174613a2055524920717565727920666f72206e6f60008201527f6e6578697374656e7420746f6b656e0000000000000000000000000000000000602082015250565b7f7b226e616d65223a202200000000000000000000000000000000000000000000600082015250565b7f4552433732313a20617070726f76616c20746f2063757272656e74206f776e6560008201527f7200000000000000000000000000000000000000000000000000000000000000602082015250565b7f46495253545f574f524400000000000000000000000000000000000000000000600082015250565b7f646174613a6170706c69636174696f6e2f6a736f6e3b6261736536342c000000600082015250565b7f546865206d6178696d756d206d696e74696e67206c696d69742068617320626560008201527f656e2061636869657665642e20576520686f706520746f2073656520796f752060208201527f736f6f6e00000000000000000000000000000000000000000000000000000000604082015250565b7f4552433732313a207472616e736665722063616c6c6572206973206e6f74206f60008201527f776e6572206e6f7220617070726f766564000000000000000000000000000000602082015250565b61385981612f6c565b811461386457600080fd5b50565b61387081612f7e565b811461387b57600080fd5b50565b61388781612f8a565b811461389257600080fd5b50565b61389e81612fd6565b81146138a957600080fd5b5056fe4142434445464748494a4b4c4d4e4f505152535455565758595a6162636465666768696a6b6c6d6e6f707172737475767778797a303132333435363738392b2f416e204e4654207769746820494420257320686173206265656e206d696e74656420746f202573a26469706673582212205fec642da9dbfc7eb2f7daac0cbcac817d74195968eb38989914525473c0888764736f6c6343000801003354686973206973206d79204e465420636f6e74726163742c20776f61616161686868682121212121213c73766720786d6c6e733d27687474703a2f2f7777772e77332e6f72672f323030302f73766727207072657365727665417370656374526174696f3d27784d696e594d696e206d656574272076696577426f783d2730302033353020333530273e3c7374796c653e2e62617365207b2066696c6c3a2077686974653b20666f6e742d66616d696c793a2073657269663b20666f6e742d73697a653a20323470783b207d3c2f7374796c653e3c726563742077696474683d2731303025276865696768743d2731303025272066696c6c3d27626c61636b27202f3e3c7465787420783d273530252720793d273530252720636c6173733d27626173652720646f6d696e616e742d626173656c696e653d276d6964646c6527746578742d616e63686f723d276d6964646c65273e",
  "linkReferences": {},
  "deployedLinkReferences": {}
}